:10000000D80C0110499B0300439C0300C96D0300F9
:1000100000000000000000000000000000000000E0
:10002000000000000000000000000000459C0300EC
:100030000000000000000000479C0300499C0300F2
:100040005D9C03009D6C030000000000A16D030097
:1000500000000000519C0300596B0300C36B0300B8
:10006000539C0300CB6B03001F6C0300559C0300E3
:10007000579C0300E16C03001D6B0300516B0300F0
:10008000D36B0300DB6B0300599C03003D6D030041
:100090005B9C03000000000000000000476C0300B0
:1000A0004B9C0300E36B03004D9C0300F96B0300C2
:1000B000016C03004F9C03000F6C0300176C0300DE
:1000C000F1B584B00E0004AD00210C00049A120CAE
:1000D0006B461A8000E0491C0A00D2B21C2A0FD2DB
:1000E000334A0B00DBB208277B43D35A6F463F8865
:1000F000BB42F0D10800C0B20823584310188078E2
:10010000C9B21C2902D12000C0B24FE00822284900
:10011000C0B2082358430818416801A80DF0B5FE85
:100120001F2031006A780240D2B2022A0BD128780F
:10013000002802D02878012836D1022201A80DF02B
:100140008FFF241D30E06A780240D2B2042A0BD11E
:100150002878002802D02878012825D1032201A878
:100160000DF07EFF08341FE06A780240D2B2062A02
:100170000AD12878002802D02878012814D101A8B3
:100180000DF0C7FF641C0FE06A781040C0B2082869
:100190000AD12878002802D02878012804D1042226
:1001A00001A80DF05DFF08342000C0B205B0F0BD1D
:1001B00090810300F1B588B00F0016001C003900D3
:1001C0000898FFF77DFF05002800C0B2002801D184
:1001D000002010E002A9089805F0E8F8EDB26846A2
:1001E000858002A8009001AB3A00210030000FF09A
:1001F0007FFC3018012009B0F0BD0000F1B592B0CD
:1002000012AE00241298000C6A46D080002000E054
:10021000401C0200D2B21F2A12D28D4A0300DBB268
:100220000C277B43D35A6F46FF88BB42F0D10300B3
:10023000DBB20C256B43D21892786B461A7105001D
:100240000200D2B21F2A03D12000C0B200F011FD7B
:100250000F0069460979002936D0491E00D1FCE01B
:10026000491E012900D8B1E0891E022900D88BE17E
:10027000C91E00D122E2491E022900D884E1C91E0C
:10028000012900D82AE3891E042900D866E2491F03
:1002900000D17AE3891E00D1BEE3491E01D100F0EE
:1002A0001AFC491E01D100F0FAFB891E01D100F0B1
:1002B00004FC491E01D100F04FFC1139022901D87C
:1002C00000F06EFC00F0BDFC7078C006C00EC0B23D
:1002D000022805D07078C006C00EC0B2042872D1C2
:1002E000307800283FD1002430E0A5482100C9B271
:1002F0000422514340580A210FF0ECFC029018E010
:1003000053482900C9B20C2251434018007A69466B
:1003100008717078C006C00EC0B20228E5D19848B6
:100320002100C9B204225143405864210FF0D2FC8D
:1003300002906846027992B202A92000C0B26B46D0
:100340001B79584338180DF0A0FD641C2000C0B282
:100350000328D5DB3E48EDB20C214D434019047A09
:100360000320444330E0307804282ADA3848EDB2DC
:100370000C214D434019047A7078C006C00EC0B2FB
:1003800002280BD17E483178042251434018001FC7
:10039000006864210FF09EFC02900AE078483178F2
:1003A000042251434018001F00680A210FF092FCFC
:1003B00002902200D2B292B202A938000DF065FD7F
:1003C00002E0002400E0002400F051FC7078C00638
:1003D000C00E022802D0002400F049FC307800282A
:1003E00014D11B482900C9B20C22514341180C7A80
:1003F00003214C432200D2B292B2EDB20C214D4304
:100400004019416838000DF040FD24E030780428A0
:1004100020DA0F482900C9B20C22514341180C7A46
:100420003178491E2A00D2B20C235A438218127A1C
:1004300051432200D2B292B2EDB20C235D43401977
:100440004068C9B2411838000DF01FFD03E000BF3D
:1004500044780300002400F00AFC7078C006C00E47
:10046000C0B2022805D07078C006C00EC0B2052800
:1004700056D1307800282BD10C2400252800C0B29A
:10048000032800DB7FE07078C006C00EC0B20228EF
:1004900008D03B482900C9B20422514340184069A2
:1004A00000900AE036482900C9B20422514340189E
:1004B00040690A210FF00BFC0090042269462800D5
:1004C000C0B20423584338180DF0DFFC6D1CD5E78B
:1004D0003078042822DA04243078401E7178C90666
:1004E000C90EC9B202290AD12549C0B2042250431B
:1004F000081840690A210FF0EAFB009006E0204945
:10050000C0B2042250430818406900902200D2B2C1
:1005100092B2694638000DF0B8FC34E0002432E0B5
:100520001F20717802000A40D2B2042A11D131781A
:1005300000290ED104241248006A0A210FF0C7FBDB
:1005400000902200D2B292B2694638000DF09DFCB4
:1005500019E071780840C0B2062813D1307800281D
:1005600010D104240648C06A0A210FF0B0FB0090A5
:100570002200D2B292B2694638000DF086FC02E049
:10058000FCE00010002472E37078C006C00EC0B218
:10059000022806D07078C006C00EC0B2042800D071
:1005A0008AE03078002851D1CA482900C9B20C220B
:1005B00051434018047A04204443002069460871DE
:1005C00068460079042878DA00200090C1482900A4
:1005D000C9B20C2251434018027A92B2BD48290098
:1005E000C9B20C235943401840686946097904236D
:1005F0005943411868460DF048FC7078C006C00E9B
:10060000C0B2022805D10098FA2189000FF05FFBE3
:100610000090B0482900C9B20C22514341180A7A0F
:1006200092B2694684462B00DBB20C2043436046FD
:10063000C018007A6B461B79584338180DF025FC1A
:1006400068460079401C69460871B9E7307805288A
:1006500030DAA0492800C0B20C2250430818047AAE
:100660003078401E2A00D2B20C235A438A18127ADC
:1006700050432200D2B292B2EDB20C235D4349192D
:100680004968C0B2091868460DF0FFFB7078C006D3
:10069000C00EC0B2022805D10098FA2189000FF0DF
:1006A00016FB00902200D2B292B2694638000DF0DB
:1006B000ECFB02E0002400E00024D8E27078C006E1
:1006C000C00E022801D00024D1E2307800282AD1BF
:1006D00000241BE07F482900C9B20C225143401876
:1006E000007A7D492200D2B202235A43891860223F
:1006F000895E00910200D2B292B269462300DBB259
:10070000C0B24343F8180DF0C0FB641C2000C0B217
:100710000428DFDB6F48EDB20C214D434019047A09
:100720000420444319E03078052815DA6948EDB211
:100730000C214D434019047A674831780222514315
:1007400040185E21405E00902200D2B292B269460B
:1007500038000DF09AFB00E0002488E21F20717839
:1007600002000A40D2B2022A0BD0717802000A407D
:10077000D2B2032A05D0717802000A40D2B2042A0C
:1007800068D13178002938D152492A00D2B20C23DD
:100790005A4389180C7A29214C4371780840C0B219
:1007A000801E2100C9B24843029000263000C0B22A
:1007B000292800DB8DE047492800C0B20C225043B5
:1007C0000818007A70432A00D2B20C235A438A18C0
:1007D000127A92B28C462B00DBB20C214B4361465D
:1007E000C91849680300DBB2C918029BC918C0B216
:1007F00038180DF04AFB761CD8E731782A2968DAD8
:1008000034492A00D2B20C235A438A18147A7278D7
:100810001040C0B2801E2200D2B250432922504361
:1008200002903078401E2A00D2B20C235A438A1814
:10083000127A50432200D2B292B2EDB20C235D4341
:1008400049194968C0B208180299411838000DF0DA
:100850001CFB3EE0717802000A40D2B2052A03D1A7
:1008600029203870012434E071780840C0B207288C
:100870002FD13078002813D10824174DC5482858A7
:100880000290042202A938000DF0FFFAD320C00024
:1008900028580290042202A9381D0DF0F6FA18E03B
:1008A0003078012809D10424BB4800680290042252
:1008B00002A938000DF0E9FA0BE03078022808D1DF
:1008C0000424B64800680290042202A938000DF002
:1008D000DCFACCE144780300FCE000107078C0063C
:1008E000C00E022850D13078002829D1CA482900EA
:1008F000C9B20C2251434018047A03204443002615
:100900003000C0B203283FDAC3492800C0B20C222D
:1009100050430818007A70432200D2B292B28C463B
:100920002B00DBB20C214B436146C9184968030018
:10093000DBB2C918C0B238180DF0A7FA761CDFE791
:10094000307804281FDAB4482900C9B20C22514378
:1009500041180C7A31784B1E2900C9B20C22514340
:100960004118097A4B432200D2B292B2EDB20C2167
:100970004D43401940681900C9B24118DBB2F8185C
:100980000DF083FA00E0002471E17078C006C00E1B
:10099000022840D1307800280ED119242200D2B28A
:1009A00092B2002138000DF084FA19233A00662132
:1009B0000E200FF025FA2EE03078012807D1072409
:1009C00007233A0066210E200FF01AFA23E0307850
:1009D00002280ED1302419230AAA66210E200FF016
:1009E0000FFA2200D2B20AA8C11D38000FF004FD90
:1009F00011E0307803280ED10F24192303AA6621B1
:100A00000E200FF0FDF92200D2B203A801000D3133
:100A100038000FF0F1FC2AE11F20717802000A4033
:100A2000D2B2022A16D17C4C2800C0B20C21484315
:100A30002018027A92B22800C0B20C214843201834
:100A4000416838000DF021FAEDB20C2045436019E1
:100A5000047A23E071780840C0B204281ED13078AF
:100A6000002808D110242200D2B292B28249380064
:100A70000DF00BFA12E0307809280EDA0224220079
:100A8000D2B292B2C74831780223594340180100CC
:100A9000663138000DF0F9F900E00024E7E0307825
:100AA000002808D102242200D2B292B2BE493800F6
:100AB0000DF0EBF900E00024D9E03078002808D1EF
:100AC00004242200D2B292B2B84938000DF0DDF908
:100AD00000E00024CBE07178C906C90E02293AD1A2
:100AE0003178002918D14C482900C9B20C22514351
:100AF00041180C7A04214C432900C9B20C225143FD
:100B000041180A7A92B2EDB20C214D434019416866
:100B100038000DF0BAF91EE0317805291BDA3E499C
:100B2000C0B20C2250430818047A3078401E2A00C4
:100B3000D2B20C235A438A18127A50432200D2B2FE
:100B400092B2EDB20C235D4349194968C0B209184D
:100B500038000DF09AF98AE01F20717802000A40EF
:100B6000D2B2042A08D104242200D2B292B290490F
:100B700038000DF08AF90CE071780840C0B2052801
:100B800007D104242200D2B292B28A4938000DF073
:100B90007CF96CE09406000090E7001094E70010E8
:100BA000002004003178002925D106001DE0824D87
:100BB00010223000C0B210214843281801000A3129
:100BC0002000C0B238180DF060F910341022300047
:100BD000C0B210214843281801003A312000C0B2A9
:100BE00038180DF052F91034761C3000C0B20328CA
:100BF000DDDB602424E0317801290FD110226E481A
:100C0000694609791023594340186C494118380046
:100C10000DF03BF9102413E04478030031780229E9
:100C20000DD11022644869460979102359434018B0
:100C30006349411838000DF028F9102400E0040041
:100C400015E0604C2800C0B20C2148432018027AFD
:100C500092B22800C0B20C214843201841683800E5
:100C60000DF013F9EDB20C2045436019047A200011
:100C7000C0B213B0F0BD00002CF70010F3B597B070
:100C8000070016001C0018993800FFF7B7FA050096
:100C90002800C0B2002801D1002081E002944A4817
:100CA00087426BD1192303AA66210E200FF0A8F802
:100CB000032528006946087102200090002301AA3C
:100CC000029930000EF07CFD34181C2000900023A7
:100CD00003AA029920000EF073FD2418280069462B
:100CE000087101200090002301AA029920000EF053
:100CF00067FD2418002630006946087113E01220B1
:100D00000090002303A86946097902225143401844
:100D1000C21D029920000EF053FD24186846007988
:100D2000401C69460871684600790328E7DB68467D
:100D3000057101200090002301AA029920000EF005
:100D40003FFD24186846067168460079032826DAB4
:100D500005200090002303A8694609790422514325
:100D6000401802000D32029920000EF029FD2418CF
:100D700068460079401C69460871E5E70AA9380011
:100D800004F014FBEDB26846C5800AA8009001ABE0
:100D90009B1C189A029930000EF0AAFE3018012010
:100DA00019B0F0BDC4F6001024F7001028F70010A9
:100DB000DCF60010E0F60010D4F100106AFDFFFF31
:100DC0009AFDFFFF4478030000025E20F9B58DB064
:100DD0000C0016000DA804900D98000C6946888040
:100DE0000127002500E06D1C2800C0B21D2825D277
:100DF0008C482A00D2B20C235A43825A6B469B88F5
:100E00009A42F0D12900C9B20C2251434118CB8833
:100E1000220014002A00D2B20C214A4381188968AA
:100E20002200009184462900C9B20C20414360464B
:100E30004018007900990EF0E3FF29006846808889
:100E40008022D20190421DD0684680888822D2013B
:100E5000904217D068468088734A904212D0684604
:100E60008088724A90420DD068468088704A9042CD
:100E700008D004984078C006C00E022802D0002096
:100E800001F0C4FBEDB21D2D01D101F0BCFB0E9DA4
:100E9000684680888022D201801A47D0401E00D147
:100EA000A7E0401E00D1CEE0401E00D1EFE0401E82
:100EB00000D10EE1C01E00D1DFE1401E012800D8A4
:100EC00071E2001F00D17FE2001F00D1B6E2401E98
:100ED00001D101F04BF9C01E012801D801F0CEF973
:100EE000801E012801D801F066FA1A3800D1B8E254
:100EF000BE3800D1F3E2183801D100F098FFC01ECF
:100F0000012801D800F0E7FF801E01D100F0F3FFB7
:100F1000801F01D101F004F8401F01D101F0AEF8AB
:100F2000444A801A00D1A4E301F04DFB1F2004992C
:100F300049780140C9B2052944D104232200062181
:100F400006200EF05DFF0498007800281ED10220D4
:100F50006946087202200090002302AA290030008E
:100F60000EF02EFC361812200090002322002900DB
:100F700030000EF025FC3618122000900023A21C31
:100F8000290030000EF01CFC301830E00498007886
:100F9000012809D1122000900023220029003000EE
:100FA0000EF00EFC301822E00498007802281ED1C2
:100FB000122000900023A21C290030000EF000FC3B
:100FC000301814E0049949780840C0B202280DD1C5
:100FD000194C20000FF0AFFB1C20009000232200D2
:100FE000290030000EF0ECFB301800E0002701F083
:100FF0000BFB04984078C006C00E022820D104984C
:10100000007800281CD106206946488109200090FC
:1010100002AB9B1C094A290030000EF0D1FB3018AE
:101020000FE000BFB879030006410000EE40000069
:1010300011410000EE06000020FE0010B8FD001077
:10104000002701F0E1FA04984078C006C00E02289B
:101050001AD104980078002816D110F089F90620DA
:10106000694648816846438922000B2103200EF01F
:10107000C7FE0920009002AB9B1C22002900300013
:101080000EF09EFB301800E0002701F0BDFA049836
:101090004078C006C00E022818D1049800780028B5
:1010A00014D10620694648816846438922002021E0
:1010B00003200EF0A5FE0920009002AB9B1C22002D
:1010C000290030000EF07CFB301800E0002701F012
:1010D0009BFA0498007800286CD1032069460872B6
:1010E00002200090002302AA290030000EF068FBC5
:1010F0003018039000264DE0042069460872022053
:101100000090002302AA290003980EF059FB0399CE
:10111000081803901620009000233000C0B204216C
:1011200048432218290003980EF04AFB0399081837
:1011300003901120009000233000C0B204214843E6
:101140002018421C290003980EF03AFB0399081856
:1011500003901120009000233000C0B204214843C6
:101160002018821C290003980EF02AFB0399081806
:1011700003901120009000233000C0B204214843A6
:101180002018C21C290003980EF01AFB03990818B6
:101190000390761C3000C0B20228ADDB0620009020
:1011A000002322000832290003980EF009FB03995E
:1011B000081860E004980078012803D004980078AB
:1011C000022848D104980078401E6946087104201E
:1011D0006946087202200090002302AA290030000C
:1011E0000EF0EEFA361816200090002368460079BB
:1011F000042148432218290030000EF0E1FA361885
:1012000011200090002368460079042148432018EB
:10121000421C290030000EF0D3FA3618112000903D
:10122000002368460079042148432018821C2900C5
:1012300030000EF0C5FA36181120009000236846E1
:101240000079042148432018C21C290030000EF008
:10125000B7FA30180FE00498007803280AD1062066
:101260000090002322000832290030000EF0A8FA76
:10127000301800E0002701F0C7F904980078002832
:1012800048D107206946087202200090002302AA74
:10129000290030000EF094FA361811200090002337
:1012A0002200290030000EF08BFA36180020694623
:1012B000087112E012200090002368460079022194
:1012C00048432018421C290030000EF079FA3618E5
:1012D00068460079401C6946087168460079032811
:1012E000E8DB00206946087168460079032858DA6F
:1012F000112000900023684600792018C21D2900A3
:1013000030000EF05DFA361868460079401C6946D8
:101310000871E9E704980078012809D111200090AC
:1013200000232200290030000EF04AFA301838E07D
:1013300004980078022807D004980078032803D086
:1013400004980078042810D104980078801E122197
:1013500000910023C0B2022148432018421C2900FA
:1013600030000EF02DFA30181BE0049800780528A4
:1013700007D004980078062803D00498007807283E
:101380000ED104980078401F112100910023C0B2B3
:101390002018C21D290030000EF012FA301800E0AB
:1013A000002701F031F904980078002809D11C20A9
:1013B000009000232200290030000EF001FA3018BE
:1013C00000E0002701F020F904980078002820D1DF
:1013D00005206946087202200090002302AA290015
:1013E00030000EF0EDF93018039000263000C0B246
:1013F000052821DA1120009000233000C0B2221805
:10140000290003980EF0DCF9039908180390761C64
:10141000ECE70498007806280DDA04980078401E5E
:10142000112100910023C0B22218290030000EF0D3
:10143000C7F9301800E0002701F0E6F804980078BA
:1014400000280BD1032020701120009000232200DF
:10145000290030000EF0B4F9301800E0002701F048
:10146000D3F804980078002822D104206946087235
:1014700002200090002302AA290030000EF0A0F9FB
:101480003018039000263000C0B2042825DA12205C
:10149000009000233000C0B20221484322182900E6
:1014A00003980EF08DF9039908180390761CEAE76B
:1014B0000498007805280FDA04980078401E12215D
:1014C00000910023C0B202214843221829003000B5
:1014D0000EF076F9301800E0002701F095F8049836
:1014E0004078C006C00E022800D0BFE00498007803
:1014F000002866D107206946087202200090002368
:1015000002AA290030000EF05BF936181C2000906A
:1015100000232200290030000EF052F9361869200D
:10152000694648810020694608711CE0152000903A
:1015300000236846407908214843221829003000DA
:101540000EF03EF9361868464079401C69464871ED
:10155000684640796946097A8842E7D36846007947
:10156000401C6946087168460079062800DB7EE069
:1015700068464189684600794143684643892200AC
:1015800089B2233114200EF03BFC207869460872A2
:10159000641C6846007A002803D06846007A0E284A
:1015A00002DB0D206946087201200090002302AA88
:1015B000290030000EF004F9361800206946487101
:1015C000C6E704980078012809D11C200090002368
:1015D0002200290030000EF0F3F8301847E004989C
:1015E0000078082840DA69206946488168464189C0
:1015F00004980078801E414368464389220089B2DE
:10160000233114200EF0FCFB207869460872601C20
:1016100001906846007A002803D06846007A0E28B8
:1016200002DB0D206946087201200090002302AA07
:10163000290030000EF0C4F8361800242000694656
:10164000097AC0B2884212D2152000900023019876
:101650002100C9B2082251434218290030000EF07F
:10166000AFF83618641CE9E7002700E0002700F017
:10167000CBFF04984078C006C00E022800D0D5E306
:1016800004980078002800D08CE205206946087292
:1016900002200090002302AA290030000EF090F8EA
:1016A000341801206946087201200090002302AA24
:1016B000290020000EF084F82418042069460872DE
:1016C00002200090002302AA290020000EF078F8E2
:1016D000241800206946087258200090002302AAAE
:1016E000290020000EF06CF824180422002107A81D
:1016F0000CF0DFFB06200090002307AA2900200041
:101700000EF05EF8241804220021C94307A80CF04B
:10171000D0FB06200090002307AA290020000EF02D
:101720004FF8241803206946087201200090002316
:1017300002AA290020000EF043F82418ED48039077
:10174000039810F0E9FBEC490E784A781206120C67
:10175000164310F0EDFB0100E84810F004FC842172
:10176000C90510F055FC10F0ABFC00900191B6B229
:10177000300010F0DDFB8E21C90510F0F4FB10F0F5
:101780009FFC0022DE4B10F0B4FC009A019B10F08D
:101790008AFD10F05DFE069006200090002306AA48
:1017A000290020000EF00CF82418039810F0B4FB68
:1017B000D4490E784A781206120C164310F0B8FB82
:1017C0000100CE4810F0CFFB8421C90510F020FCA9
:1017D00010F076FC00900191B6B2300010F0A8FB3A
:1017E0008E21C90510F0BFFB10F06AFC0022C44B2B
:1017F00010F07FFC009A019B10F055FD10F028FEC0
:10180000069006200090002306AA290020000DF073
:10181000D7FF2418039810F07FFBBB490E784A7855
:101820001206120C164310F083FB0100B34810F0AF
:101830009AFB8421C90510F0EBFB10F041FC0090ED
:101840000191B6B2300010F073FB8E21C90510F083
:101850008AFB10F035FC0022A94B10F04AFC009ADC
:10186000019B10F020FD10F0F3FD06900620009083
:10187000002306AA290020000DF0A2FF241803204F
:101880006946087201200090002302AA2900200066
:101890000DF096FF24189D480390039810F03CFB30
:1018A0009B490E784A781206120C164310F040FB42
:1018B0000100924810F057FB8421C90510F0A8FBE5
:1018C00010F0FEFB00900191B6B2300010F030FB3A
:1018D0008E21C90510F047FB10F0F2FB0022884B67
:1018E00010F007FC009A019B10F0DDFC10F0B0FD39
:1018F000069006200090002306AA290020000DF083
:101900005FFF2418039810F007FB82490E784A788D
:101910001206120C164310F00BFB0100774810F072
:1019200022FB8421C90510F073FB10F0C9FB009065
:101930000191B6B2300010F0FBFA8E21C90510F00B
:1019400012FB10F0BDFB00226D4B10F0D2FB009A91
:10195000019B10F0A8FC10F07BFD06900620009083
:10196000002306AA290020000DF02AFF241803985E
:1019700010F0D2FA68490E784A781206120C164313
:1019800010F0D6FA01005D4810F0EDFA8421C90587
:1019900010F03EFB10F094FB00900191B6B23000C5
:1019A00010F0C6FA8E21C90510F0DDFA10F088FBA0
:1019B0000022534B10F09DFB009A019B10F073FC2A
:1019C00010F046FD069006200090002306AA29008C
:1019D00020000DF0F5FE241803206946087201204E
:1019E0000090002302AA290020000DF0E9FE24182F
:1019F000E848069006200090002306AA290020004F
:101A00000DF0DEFE241806200090002306AA29000F
:101A100020000DF0D5FE241806200090002306AA11
:101A2000290020000DF0CCFE241801206946087220
:101A300001200090002302AA290020000DF0C0FE22
:101A4000241802206946087202200090002302AA8E
:101A5000290020000DF0B4FE241800206946087209
:101A600058200090002302AA290020000DF0A8FEB3
:101A700024180422002107A80CF01BFA062000906D
:101A8000002307AA290020000DF09AFE2418042242
:101A90000021C94307A80CF00CFA0620009000238F
:101AA00007AA290020000DF08BFE2418039810F0DF
:101AB00033FAD2490E784A781206120C164310F007
:101AC00037FA01000D4810F04EFA8421C90510F0D4
:101AD0009FFA10F0F5FA00900191B6B2300010F0C4
:101AE00027FA8E21C90510F03EFA10F0E9FA00221B
:101AF000034B13E08AF4001010F4001020BCBE4C1D
:101B00000000F03F12F4001014F400108EF40010E6
:101B100016F4001018F400101AF4001010F0E9FA8E
:101B2000009A019B10F0BFFB10F092FC069006207B
:101B30000090002306AA290020000DF041FE26187F
:101B400007AC0A20207011200090002307AA29006A
:101B500030000DF035FE3618A9480178427812069B
:101B6000120C11432170017842781206120C1143B5
:101B70000805000D80B2000A60701220009000235A
:101B800007AA290030000DF01BFE36180320207034
:101B900011200090002307AA290030000DF010FE4C
:101BA000301843E104980078012800D09BE0012020
:101BB0006946087201200090002302AA2900300023
:101BC0000DF0FEFD341804206946087202200090D2
:101BD000002302AA290020000DF0F2FD24180020A5
:101BE0006946087258200090002302AA29002000AC
:101BF0000DF0E6FD24180422002107A80CF059F985
:101C000006200090002307AA290020000DF0D8FD2F
:101C1000241804220021C94307A80CF04AF9062021
:101C20000090002307AA290020000DF0C9FD241808
:101C300001206946087201200090002302AA2900B1
:101C400020000DF0BDFD201803906E4E3000A23034
:101C500010F062F901004F4C20000EF03BF80690A6
:101C600006200090002306AA290003980DF0A8FD85
:101C7000039908180390012069460872012000901A
:101C8000002302AA290003980DF09AFD0399081871
:101C900003903000A63010F03FF9010020000EF054
:101CA00019F8069006200090002306AA2900039840
:101CB0000DF086FD03990E18012069460872012077
:101CC0000090002302AA290030000DF079FD36189B
:101CD000069406200090002306AA290030000DF08B
:101CE0006FFD3018A2E004980078022854D101203A
:101CF0006946087201200090002302AA29003000E2
:101D00000DF05EFD34180220694608720220009032
:101D1000002302AA290020000DF052FD2418002003
:101D20006946087258200090002302AA290020006A
:101D30000DF046FD24180422002107A80CF0B9F884
:101D400006200090002307AA290020000DF038FD8E
:101D5000241804220021C94307A80CF0AAF8062081
:101D60000090002307AA290020000DF029FD241867
:101D7000254810F0D1F8010006480DF0ABFF0690A1
:101D800006200090002306AA290020000DF018FD6F
:101D900020184BE040420F000498007803280CD133
:101DA00008206946087711200090002307AA29001F
:101DB00030000DF005FD301838E004980078042854
:101DC00024D10F48027841780906090C0A4307A973
:101DD0000A70027843781B061B0C1A431005000D8D
:101DE00080B2000A487012200090002307AA290040
:101DF00030000DF0E5FC301818E000BF1CF40010B6
:101E0000D6F40010E8F300108EF400100498007867
:101E100005280BD103206946087711200090002384
:101E200007AA290030000DF0CBFC3018ECE31F208E
:101E3000049949780140C9B2022914D106206946A3
:101E4000488168464389220078210D200DF0D8FF93
:101E50000A20009002AB9B1C2200290030000DF0EC
:101E6000AFFC301836E0049949780140C9B2032923
:101E700014D12020694648816846438922003221D6
:101E80000D200DF0BDFF0A20009002AB9B1C22002C
:101E9000290030000DF094FC30181BE004994978BB
:101EA0000840C0B2042814D1202069464881684601
:101EB0004389220052210D200DF0A2FF0A2000903C
:101EC00002AB9B1C2200290030000DF079FC301879
:101ED00000E0002798E304980078002809D1062044
:101EE000009000232200290030000DF069FC30181A
:101EF00000E0002788E3202069464881684643893E
:101F0000220086210D200DF07BFF0A20009002ABFD
:101F10009B1C2200290030000DF052FC301873E3A6
:101F20001F20049949780140C9B2022915D1102017
:101F300069464881684643892200FF2122310D20ED
:101F40000DF05EFF0A20009002AB9B1C22002900CE
:101F500030000DF035FC30188FE0049949780840C6
:101F6000C0B2032800D088E0202069464881684636
:101F700043892200FF2132310D200DF041FF0498EA
:101F8000007800280BD101206946087201200090DA
:101F9000002302AA290030000DF012FC361806209A
:101FA0006946087202200090002302AA290030002E
:101FB0000DF006FC36180220694648810A20009080
:101FC00002AB9B1C2200290030000DF0F9FB3618F3
:101FD00068464089201801900420694648810A20FB
:101FE000009002AB9B1C019A290030000DF0E8FB29
:101FF000361801986946498940180190012420004B
:1020000069464881112000900023019A2900300080
:102010000DF0D6FB361801986946498940180190A1
:102020000820694648810A20009002AB9B1C019A57
:10203000290030000DF0C4FB361801986946498923
:102040004018019068464481112000900023019AB5
:10205000290030000DF0B4FB341801986946498915
:1020600042181020694648810A20009002AB9B1C50
:10207000290020000DF0A4FB2018C5E20498007888
:10208000002840D1032069460872012000900023F7
:1020900002AA290030000DF093FB301803900026AF
:1020A0003000C0B2032860DA0220694608720220BC
:1020B0000090002302AA290003980DF081FB0399E8
:1020C000081803901120009000233000C0B20221B4
:1020D00048432018421C290003980DF071FB039916
:1020E000081803901120009000233000C0B2022194
:1020F00048432218290003980DF062FB0399081841
:102100000390761CCCE70498007804282CDA049815
:102110000078401E69460871022069460872022054
:102120000090002302AA290030000DF049FB361868
:1021300011200090002368460079022148432018AE
:10214000421C290030000DF03BFB36181120009096
:1021500000236846007902214843221829003000F4
:102160000DF02EFB301800E000274DE2012305AAF8
:10217000042105200DF044FE6846007D002802D0B1
:1021800000206946087504980078002840D1012095
:102190000090002305AA290030000DF011FB301833
:1021A0000390002630006946097DC0B2884264D29F
:1021B00002206946087202200090002302AA29002A
:1021C00003980DF0FDFA03990818039006223000D9
:1021D000C0B20621484321180AA80BF056FE1A2067
:1021E000009000230AA8421C290003980DF0E8FA89
:1021F0000399081803901120009000230AAA2900CF
:1022000003980DF0DDFA039908180390761CC9E7CE
:102210006846007D0499097888422DD30498007897
:10222000401E69460871022069460872022000902B
:10223000002302AA290030000DF0C2FA3618062247
:10224000684600790621484321180AA80BF01DFEB4
:102250001A20009000230AA8421C290030000DF02B
:10226000AFFA34181120009000230AAA2900200098
:102270000DF0A6FA201800E00027C5E1012305AA09
:10228000921C002105200DF0BBFD6846807D0028D2
:1022900002D00020694688750498007800284DD146
:1022A00001200090002305AA921C290030000DF0A7
:1022B00087FA361800206946087168460079694631
:1022C000897D884276D203206946087202200090F8
:1022D000002302AA290030000DF072FA3018039092
:1022E00003226846007903214843211809A80BF00E
:1022F000CCFD09AE112000900023B21C29000398E8
:102300000DF05EFA03990818039011200090002345
:10231000721C290003980DF053FA03990E1811202E
:102320000090002309AA290030000DF049FA361860
:1023300068460079401C69460871BEE70498007839
:10234000002836D104980078401E694608710320A1
:102350006946087202200090002302AA290030007A
:102360000DF02EFA361803226846007903214843FF
:10237000211809A80BF089FD09AC11200090002359
:10238000A21C290030000DF01BFA36181120009015
:102390000023621C290030000DF012FA34181120BD
:1023A0000090002309AA290020000DF009FA201846
:1023B00000E0002728E1012305AA521C0121052085
:1023C0000DF01EFD6846407D002802D000206946C1
:1023D0004875012302AA521C022105200DF010FDB0
:1023E0006846407A002802D0002069464872049866
:1023F000007800287CD101200090002305AA521CFF
:10240000290030000DF0DCF93618002069464871CB
:1024100044E003206946087202200090002302AACB
:10242000290030000DF0CCF93018039003226846E3
:10243000007903214843211808A80BF026FD08AEB7
:10244000112000900023B21C290003980DF0B8F968
:10245000039908180390112000900023721C290092
:1024600003980DF0ADF903990E1811200090002388
:1024700008AA290030000DF0A3F936186846007943
:10248000401C69460871684600796946497A884265
:10249000BFD368464079401C694648716846407918
:1024A0006946497D884200D38CE0684640790499AA
:1024B00089780907090F891F08225143401880B203
:1024C0002A214143C91D2A23220089B2E331052074
:1024D0000DF096FC01200090002302AA521C290056
:1024E00030000DF06DF93618002069460871CAE712
:1024F00004980078002864D104980078401EC0B287
:10250000049989780907090F891F08225143401847
:1025100080B22A214143C91D2A23220089B2E33116
:1025200005200DF06DFC01200090002302AA521C32
:10253000290030000DF044F9361800206946087172
:10254000684600796946497A88423BD20320694649
:10255000087202200090002302AA290030000DF02A
:102560002FF930180390032268460079032148436D
:10257000211808A80BF089FC08AE11200090002358
:10258000B21C290003980DF01BF903990818039059
:10259000112000900023721C290003980DF010F9FF
:1025A00003990E1811200090002308AA290030007A
:1025B0000DF006F9361868460079401C6946087126
:1025C000BEE7002720E004984078C006C00E02282D
:1025D00017D104980078002813D10D480A00D2B210
:1025E0000C235A43821892780092C9B20C225143AC
:1025F0004018831D2200290030000DF0E1F830184A
:1026000000E0002700E000273800C0B20FB0F0BDA6
:10261000B8790300F3B58FB016001F000FAD0F9807
:10262000000C092100216A46517101A9491C80B2A0
:1026300003F082FB04002000C0B2092803DA6846D8
:102640004079072801D000205CE01F2002976978BC
:102650000140C9B2032935D1109DD5482100C9B226
:102660000822514341184B682A00E4B208214C4328
:10267000015915200DF0C4FB2878694608716D1CBE
:1026800001200090002301AA029930000DF098F873
:102690003418AE1C0025280069460979C0B288426A
:1026A0002FD2072231000DA80BF0EFFBF61D5120B1
:1026B000009000230DAA029920000DF081F8241843
:1026C0006D1CE8E769780140C9B204291CD1B948FA
:1026D0002100C9B20822514341184B6806AAE4B24E
:1026E00008214C43015917200DF08AFB122000905D
:1026F000002306A802001232029930000DF060F8A3
:102700003018012011B0F0BD69780140C9B2052927
:102710000FD1A948E4B2005D6946C880122000903C
:10272000002301AA921C029930000DF049F83018DC
:10273000E7E769780140C9B2062915D10120694649
:10274000087102200090002301AA029930000DF0C8
:1027500037F834180020009000230022029920004E
:102760000DF02EF82018CCE769780140C9B207298E
:1027700000D0BAE02000C0B200280BD02000C0B2C8
:10278000032807D02000C0B2042803D02000C0B224
:10279000072858D12878002802D02878012850D15D
:1027A00000212000C0B211F0CDFE1A2306AA8148F4
:1027B000E4B208214C43015917200DF021FB012000
:1027C0006946087101200090002301AA0299300097
:1027D0000CF0F6FF3518022420006946087102202B
:1027E0000090002301AA029928000CF0E9FF2D189F
:1027F0000020009000230022029928000CF0E0FF46
:102800002D186846047102200090002301AA029945
:1028100028000CF0D5FF2C1806200090002306AAF3
:10282000029920000CF0CCFF241806200090002311
:1028300006A802001432029920000CF0C1FF2018F3
:102840005FE700205EE72878002802D0287801287A
:1028500049D11A2306AA5748E4B208214C4301592A
:1028600017200DF0CDFA0120694608710120009073
:10287000002301AA029930000CF0A2FF35180224AF
:1028800020006946087102200090002301AA0299E5
:1028900028000CF095FF2D18002000900023002246
:1028A000029928000CF08CFF2D1868460471022054
:1028B0000090002301AA029928000CF081FF2C1837
:1028C00006200090002306AA029920000CF078FF51
:1028D00024180020009000230022029920000CF010
:1028E0006FFF20180DE700200CE769780840C0B2A0
:1028F0000A2800D0EEE02F482100C9B20822514337
:1029000041184B6806AA2100C9B2082779434158EB
:1029100017200DF075FA072106A80B300AF0AAFF60
:1029200000286CD00698022869D38027BF003800A1
:1029300012F018FC0490380012F014FC0390039875
:1029400000285CD00498002859D03A00002104984F
:102950000BF0AFFA3A00002103980BF0AAFA1448E2
:102960002100C9B20822514341580223049A491C4C
:1029700015200DF045FA0222049968460BF085FAFD
:102980000D482100C9B2475C0698401E0590059885
:10299000390089B20DF09EF900290FD00598BFB219
:1029A00039000DF097F9491E6846008841430AE056
:1029B000E893030030940300189B0300BFB2791E14
:1029C0006846008841434448E4B208225443005911
:1029D000091868460388039A18200DF011FA072297
:1029E000039801000B3106A804000B3420000DF001
:1029F00003FD049812F0F3FB039812F0F0FB287823
:102A0000002802D02878012862D101206946087187
:102A100001200090002301AA029930000CF0D0FEA2
:102A20003518022420006946087102200090002316
:102A300001AA029928000CF0C3FE2D180020009076
:102A400000230022029928000CF0BAFE2D186846D7
:102A5000047102200090002301AA029928000CF0C2
:102A6000AFFE2C1806AD0721281D0AF003FF002831
:102A700009D00020009000230022029920000CF0D1
:102A80009FFE241808E01C20009000232A1D0299B4
:102A900020000CF095FE2418072128000B300AF0C6
:102AA000E9FE002809D000200090002300220299AE
:102AB00020000CF085FE201823E61C200090002347
:102AC0002A000B32029920000CF07AFE201818E63A
:102AD000002017E6002015E678940300F1B58CB0CD
:102AE0000CA800900C980400240C09270020A4B224
:102AF0006D48844201D0002086E01F200E001500A2
:102B00001C00009949780140C9B2022935D16748B3
:102B10003900C9B20822514341184B683200FFB254
:102B200008214F43C15915200DF06AF930786946E4
:102B30004871761C01200090002301AA521C21003C
:102B400028000CF03DFE2D18B71C00263000694609
:102B50004979C0B2884256D20722390003A80BF047
:102B600094F9FF1D51200090002303AA21002800A2
:102B70000CF026FE2D18761CE8E7009949780140F4
:102B8000C9B2032942D1042069464871022000904D
:102B9000002301AA521C210028000CF011FE2E185F
:102BA00005AD0020009000232A00123221003000E1
:102BB0000CF006FE36181A2305AAD648FFB20821E3
:102BC0004F43C15917200DF01BF91220009000232C
:102BD0002A001232210030000CF0F2FD36180020DD
:102BE000009000232A001232210030000CF0E8FD92
:102BF00036180020009000232A00123221003000F5
:102C00000CF0DEFD301801200DB0F0BD00994978C0
:102C10000140C9B204290ED1BF48FFB2C05D694668
:102C2000088112200090002302AA210028000CF045
:102C3000C7FD2818E7E7009949780140C9B205297E
:102C400054D1B6483900C9B20822514341184B68E3
:102C50003200FFB208214F43C15916200DF0D0F8C1
:102C600000980078002823D102206946487102208C
:102C70000090002301AA521C210028000CF0A0FDA6
:102C80002D180520009000233200210028000CF0B0
:102C900097FD2D18112000900023321D21002800DF
:102CA0000CF08EFD2818AEE705300000E893030015
:102CB00000980078012809D10520009000233200F7
:102CC000210028000CF07CFD28189CE70098007873
:102CD000022809D1112000900023321D2100280074
:102CE0000CF06EFD28188EE700208DE700994978DA
:102CF0000140C9B20A296AD100980078002800D0A2
:102D000081E700213800C0B211F01CFC8148390075
:102D1000C9B20822514341184B683200FFB2082162
:102D20004F43C15917200DF06BF8042069464871D4
:102D300001200090002301AA521C210028000CF061
:102D40003FFD2F1805AD0020009000232A0012320D
:102D5000210038000CF034FD3F181A22310005A87C
:102D60000BF093F80220694688710220009000233E
:102D700001AA921C210038000CF022FD3E1806200A
:102D80000090002305AA210030000CF019FD361830
:102D90000620009000232A001432210030000CF09D
:102DA0000FFD36180020009000232A001232210067
:102DB00030000CF005FD36180020009000232A009A
:102DC0001232210030000CF0FBFC30181BE7009998
:102DD00049780140C9B20B2938D108263800C0B261
:102DE00031000CF074FF0090FFB2380031000CF09D
:102DF0006EFFD5480122009BC3189B780B411340FE
:102E0000002B03D013006E46337102E000236E46A0
:102E10003371009BC018407A08411040002806D04A
:102E200068460079022101436846017104E0684662
:102E3000007902406846027116200090002301AA22
:102E4000210028000CF0BCFC2818DCE60099497829
:102E50000140C9B20C290CD1012069460871032038
:102E60000090002301AA210028000CF0A9FC2818DA
:102E7000C9E6009949780140C9B20E2900D087E01F
:102E800024483900C9B20822514341184B68320026
:102E9000FFB208214F43C15917200CF0B1FF0420A5
:102EA0006946487101200090002301AA521C2100AC
:102EB00028000CF085FC2D18002000900023002233
:102EC000210028000CF07CFC2D181A22310005A8E6
:102ED0000AF0DBFF0220694688710220009000237F
:102EE00001AA921C210028000CF06AFC2D1805AEE6
:102EF00007220021301D0AF0CAFC002810D0002053
:102F0000009000230022210028000CF059FC2D180D
:102F10000FE000BF30940300189B0300C092030031
:102F20001C2000900023321D210028000CF048FCDA
:102F30002D180722002130000B300AF0A8FC0028D1
:102F400009D00020009000230022210028000CF06E
:102F500037FC2D1809E01C200090002332000B32B2
:102F6000210028000CF02CFC2D18002000900023DC
:102F70000022210028000CF023FC2D1800200090D6
:102F800000230022210028000CF01AFC28183AE641
:102F9000009949780840C0B20F2824D1082638008B
:102FA000C0B231000CF093FE0090FFB23800310047
:102FB0000CF08DFE0120644A009BD218127C0A415D
:102FC0000240002A02D06946087102E000206946EA
:102FD000087116200090002301AA210028000CF09F
:102FE000EFFB28180FE600200EE6F1B588B00C00C4
:102FF00016001D0008AF0898000C012180B202F0F5
:10300000BDFE0100C9B2002901D000209AE0797804
:10301000C9B2032900D094E04C490200D2B208237F
:103020005A438A18536822001400C0B20822504341
:103030000958220019200CF0E3FE02953878002888
:1030400045D1207869464871651C01200090002315
:1030500001AA521C029930000CF0B2FB3418AF1CCC
:103060000026300069464979C0B2884265D20D22F7
:10307000390003A80AF009FF0D37032069460871DB
:1030800002200090002301AA029920000CF098FB76
:10309000241812200090002303AA029920000CF0AB
:1030A0008FFB251803AC512000900023A21C02992D
:1030B00028000CF085FB2D18062000900023A21D8F
:1030C000029928000CF07CFB2C18761CC9E72078AC
:1030D0003978884233D3E01C39780D2251434118A6
:1030E0000D390D2203A80AF0D0FE032069460871AD
:1030F00002200090002301AA029930000CF060FB2E
:10310000341812200090002303AA029920000CF02A
:1031100057FB251803AC512000900023A21C0299F4
:1031200028000CF04DFB2D18062000900023A21D56
:10313000029928000CF044FB2818012002E000202E
:1031400000E0002009B0F0BD3CF80010EC9B03004B
:10315000F3B58BB00BAC0B98000C1F2165780D40BC
:10316000EDB2052D01DB0020EAE0F3263602050072
:10317000ADB2B54206D00500ADB2B04FBD4201D0F0
:103180000020DDE01500029362780A40D2B2022AE4
:1031900000D0D9E0217800297BD180B2B04210D193
:1031A000012301AA0A2108200CF02AFE68460079B2
:1031B0000A2343439BB20C9A102108200CF020FEF6
:1031C0000FE0012301AA0B2108200CF019FE68462C
:1031D00000790A2343439BB20C9A994908200CF0CA
:1031E0000FFE01200090002301AA029928000CF094
:1031F000E7FA2C180027380069460979C0B28842DE
:1032000000D39CE00A220C9904A80AF03EFE0C9818
:103210000A300C9002206946487102200090002379
:1032200001AA521C029920000CF0CAFA201803903F
:1032300004AC607A002808D107A80021017004229C
:10324000611D401C0AF021FE0EE0012607AD300092
:1032500028700422611D681C0AF017FE6E7104229A
:10326000611CA81D0AF011FE5B200090002307AA34
:10327000029903980CF0A4FA03990C1811200090FD
:10328000002304AA029920000CF09AFA24187F1C4B
:10329000B1E72178642955DA21784A1ED2B20A2191
:1032A000514380B2B04207D10A2304AA89B2103137
:1032B00008200CF0A5FD07E00A2304AA89B26048A3
:1032C000091808200CF09CFD022069464871022074
:1032D0000090002301AA521C029928000CF070FAF9
:1032E0002F1804AC607A00280FD0012607AD3000FB
:1032F00028700422611D681C0AF0C7FD6E7104224B
:10330000611CA81D0AF0C1FD07E007A8002101709B
:103310000422611D401C0AF0B8FD5B2000900023D0
:1033200007AA029938000CF04BFA3C1811200090C3
:10333000002304AA029920000CF042FA2018012070
:103340000DB0F0BD0020FBE762781140C9B203293F
:103350001ED12178002901D00020F1E780B2B042CF
:1033600006D102230C9A0C2108200CF049FD05E03F
:1033700002230C9A0E2108200CF042FD122000902E
:1033800000230C9A029928000CF01AFA2818D6E7A4
:1033900080B2B04206D1012301AA0A2108200CF014
:1033A0002FFD05E0012301AA0B2108200CF028FDC8
:1033B0002078002822D1022069464871022000901E
:1033C000002301AA521C029928000CF0F9F92C18CC
:1033D00011200090002301AA029920000CF0F0F9BE
:1033E000241863206946087111200090002301AA67
:1033F000029920000CF0E4F92018A0E720780128B9
:1034000009D111200090002301AA029928000CF094
:10341000D7F9281893E7207802280CD16320694651
:10342000087111200090002301AA029928000CF0D5
:10343000C7F9281883E7002082E7000001F30000A5
:10344000EE030000F1B584B004AE0498000C80B225
:103450008624E401A04201D0002021E01F200C00BE
:1034600015001F0071780140C9B202291AD13078C5
:10347000002801D0002013E020206946888068469B
:103480008388220086210D200CF0BAFC0A200090CF
:1034900001AB2200390028000CF092F92818012015
:1034A00005B0F0BD71780140C9B2032900D0C7E072
:1034B00020232200FF2152310D200CF0A1FC307896
:1034C00000280CD0022875D067D3042800D18CE0E6
:1034D0007DD3062800D1A4E000D294E0AFE0062618
:1034E00030006946887102200090002301AA921CD6
:1034F000390028000CF064F92818029004252800EF
:10350000694688800A20009001AB220039000298A9
:103510000CF056F90299081802900A20009001ABAD
:10352000221D390002980CF04BF9029908180290FC
:10353000684686800A20009001AB220008323900DC
:1035400002980CF03DF902990818029068468580AF
:103550000A20009001AB22000E32390002980CF0D4
:103560002FF902990D18684686800A20009001AB59
:1035700022001232390028000CF022F92D18082000
:10358000694688800A20009001AB22001832390079
:1035900028000CF015F9281881E704206946888076
:1035A0000A20009001AB2200390028000CF008F935
:1035B000281874E70420694688800A20009001AB2F
:1035C000221D390028000CF0FBF8281867E70620B8
:1035D000694688800A20009001AB22000832390039
:1035E00028000CF0EDF8281859E704206946888077
:1035F0000A20009001AB22000E32390028000CF0A6
:10360000DFF828184BE70620694688800A200090DA
:1036100001AB22001232390028000CF0D1F8281832
:103620003DE70820694688800A20009001AB22000F
:103630001832390028000CF0C3F828182FE72EE7BD
:1036400071780140C9B2042914D13078002801D022
:10365000002025E707232200A6210D200CF0D0FB37
:103660001C20009000232200390028000CF0A8F84C
:10367000281814E771780140C9B205291FD13078A4
:10368000002801D000200BE7012069468871012045
:103690000090002301AA921C390028000CF090F839
:1036A0002D180020207043206070502000900023CF
:1036B0002200390028000CF083F82818EFE6717812
:1036C0000140C9B2062924D13078002801D0002059
:1036D000E6E614232200AD210D200CF091FB012021
:1036E0006946887101200090002301AA921C3900CC
:1036F00028000CF065F82D181420694688800A20EF
:10370000009001AB2200390028000CF059F828186D
:10371000C5E671780140C9B2072901D10020BFE692
:1037200071780140C9B2082901D10020B8E671784A
:103730000140C9B2092901D10020B1E671780140E8
:10374000C9B20A2901D10020AAE671780140C9B2A4
:1037500015290ED13078002801D00020A0E60320E2
:1037600000900023104A390028000CF029F828188E
:1037700095E671780840C0B21E2812D12020694613
:10378000888068468288094920000AF07EFB0A206A
:10379000009001AB2200390028000CF011F8281825
:1037A0007DE600207CE600003CF80010FCEF030002
:1037B000F1B58AB00AA80A99090C89B28824E401F3
:1037C000A14201D00020C1E01F2114001F00427857
:1037D0000A40D2B2032A00D08EE10178002900D03D
:1037E000B6E007206946887102200090002301AAF4
:1037F000921C390020000BF0E3FF241818206946C2
:10380000888012200090002301AA390020000BF0CC
:10381000D7FF2618D64C6920225C6820215C03A8BB
:103820000DF022FF03AD1220009000236A1D390025
:1038300030000BF0C5FF3618122000900023EA1C60
:10384000390030000BF0BCFF361812200090002326
:103850006A1C390030000BF0B3FF301802900021D1
:10386000C94305A80AF0E5FA05AEC0210906301DD6
:103870000AF0DFFA002508E02800C0B2311828005D
:10388000C0B230180AF049FB6D1C2800C0B20828ED
:10389000F2DB0820694688800420009001AB05AA6D
:1038A000390002980BF08CFF029908180290B14978
:1038B00005A80AF0BEFA0021301D0AF0BAFA00216C
:1038C000300008300AF0B5FA002130000C300AF060
:1038D000B0FA002508E02800C0B231182800C0B2B4
:1038E00030180AF01AFB6D1C2800C0B21028F2DB59
:1038F0001020694688800420009001AB05AA390099
:1039000002980BF05DFF02990D186920205C0028D9
:1039100009D16820205C042148432018816C05A847
:103920000AF06AFA08E06820205C04214843201865
:10393000016A05A80AF060FA06200090002305AA93
:10394000390028000BF03CFF281801200BB0F0BD17
:10395000017801290CD11820694688801220009036
:10396000002301AA390020000BF02AFF2018ECE701
:103970000178022912D17E486921425C6821415CAC
:1039800003A80DF071FE12200090002303A8421D31
:10399000390020000BF014FF2018D6E70178032926
:1039A00012D173486921425C6821415C03A80DF083
:1039B0005BFE12200090002303A8C21C39002000E7
:1039C0000BF0FEFE2018C0E70178042912D16848E8
:1039D0006921425C6821415C03A80DF045FE12207C
:1039E0000090002303A8421D390020000BF0E8FEE0
:1039F0002018AAE70178052926D10021C94305A886
:103A00000AF017FA05AEC0210906301D0AF011FAB6
:103A1000002508E02800C0B231182800C0B23018D4
:103A20000AF07BFA6D1C2800C0B20828F2DB0820DF
:103A3000694688800420009001AB05AA3900200067
:103A40000BF0BEFE201880E7017806292ED14949E7
:103A500005A80AF0EEF905AE0021301D0AF0E9F9DB
:103A60000021300008300AF0E4F9002130000C3069
:103A70000AF0DFF9002508E02800C0B2311828005C
:103A8000C0B230180AF049FA6D1C2800C0B21028E4
:103A9000F2DB1020694688800420009001AB05AA63
:103AA000390020000BF08CFE20184EE70078072824
:103AB00000D04AE72E486921415C002909D16821DC
:103AC000415C042251434018816C05A80AF094F926
:103AD00008E06821415C042251434018016A05A8AE
:103AE0000AF08AF906200090002305AA3900200078
:103AF0000BF066FE201828E742780A40D2B2042A6A
:103B00000ED10078002801D000201FE7112000907E
:103B10000023774A390020000BF052FE201814E7EA
:103B200042781140C9B205291FD10078002801D080
:103B300000200BE70E486921415C00290AD11621BB
:103B40000091002302005932390020000BF038FEAA
:103B50002018FAE6162100910023020031323900C4
:103B600020000BF02DFE2018EFE60020EEE600000E
:103B7000ACF8001000C4FEFFF1B582B00C001500D7
:103B80001F0002AE0298000C01008022120289B2CE
:103B9000914200D087E01F2071780140C9B202290C
:103BA00042D106232200382103200CF029F9307875
:103BB00000281FD1022069460871022000900023CE
:103BC00001AA390028000BF0FBFD2D1806200090FB
:103BD00000232200390028000BF0F2FD2D181220DE
:103BE00000900023221D390028000BF0E9FD281861
:103BF0000120FEBD3078012809D106200090002365
:103C00002200390028000BF0DBFD2818F0E730789F
:103C10000228EDD1122000900023221D3900280037
:103C20000BF0CEFD2818E3E771780140C9B20429F2
:103C300019D13078002801D00020DAE701202D4981
:103C40000978C9B2090902000A4022706946C88091
:103C50000420009001AB9B1C2200390028000BF0CF
:103C6000AFFD2818C4E771780840C0B2052818D104
:103C70003078002801D00020BBE701232200062174
:103C80000E200CF0BDF801206946C8800420009089
:103C900001AB9B1C2200390028000BF091FD281875
:103CA000A6E70020A5E7144980B288421DD17078AC
:103CB000C006C00E022816D13078002801D000209E
:103CC00097E70C480078C0B280090100C907C90F06
:103CD00021701620009000232200390028000BF0EC
:103CE0006FFD281884E7002083E7002081E70000AB
:103CF00015F90010F8F6001001800000F1B584B04D
:103D00000C0015001E0004AF012069464871002018
:103D10006946088100206946C880002000E0401CF8
:103D20000100C9B20C2914D2AD4B0100C9B208225E
:103D300051435A5894460499FF22914362468A425D
:103D4000EDD10100C9B208225143591809796A46D8
:103D50001170C0B20C2819D20498FF218843A149E0
:103D6000884208D101A9891C9F4811F05BFC0028FA
:103D70000CD1002017E201AA921C9B4968460078EA
:103D800011F026FC002801D100200CE26846C28810
:103D9000954920000AF079F87878C006C00E02280C
:103DA00029D000D2FAE1042825D024D306284BD00C
:103DB00038D3082800D198E06ED30A281BD01AD334
:103DC0000C2818D017D30E2800D1FDE000D2B0E0A7
:103DD000102800D136E100D218E1122800D161E1AB
:103DE00000D255E1142800D17AE100D26AE1152809
:103DF00000D183E1D2E16846C18820000AF07EF854
:103E00000920009001AB9B1C2200310028000BF020
:103E1000D7FC28187878C006C00E022801D10DF012
:103E200020FBBEE104206946C8806846C1882000A6
:103E30000AF064F8062000900023220031002800D8
:103E40000BF0BEFC2818ACE104206946C880D748B6
:103E50006921415CA02902D1C169002906D06921EC
:103E6000415C002909D1406C002806D16846C2880F
:103E70000021201D0AF01DF804E06846C188201DBD
:103E80000AF03CF8062000900023221D3100280093
:103E90000BF096FC281884E1032069460871022083
:103EA0000090002301AA310028000BF089FC2F1894
:103EB000002515E004212800C0B204225043201838
:103EC0000AF01CF80620009000232800C0B204214C
:103ED00048432218310038000BF072FC3F186D1C6B
:103EE0002800C0B20328E5DB5BE13878002834D134
:103EF00002206946087102200090002301AA3100C7
:103F000028000BF05DFC2D1814206946088109205B
:103F1000009002AB2200310028000BF051FC2D185C
:103F20000920009002AB621D310028000BF048FC14
:103F30002D1820786946087101200090002301AAFD
:103F4000310028000BF03CFC281801210A00027007
:103F5000401C0170471C00252FE0387801280CD147
:103F60001420694608810920009002AB220031002C
:103F700028000BF025FC2D18DBE7387802280CD13F
:103F80001420694608810920009002AB621D3100AF
:103F900028000BF015FC2D18CBE702E15120009012
:103FA00000232800C0B2042148432018421C3100DD
:103FB00038000BF005FC3F186D1C28006946097994
:103FC000C0B28842EAD3ECE07948007800280DD1ED
:103FD00004232200332103200BF012FF0CE000BF6A
:103FE000688F0300001000F124F100100423220068
:103FF0002F2103200BF004FF062000900023220055
:10400000310028000BF0DCFB2818CAE06748692162
:10401000415CF0220A40002A05D1406E3C210BF0A1
:1040200059FE039004E0006E3C210BF053FE039018
:1040300006200090002303AA310028000BF0C0FBEB
:104040002818AEE06846C08808210BF040FE070043
:1040500001202870681C0770401C3188891C318041
:1040600011E009210170401C08210170451C082243
:104070002100280009F009FF2800083008343188A1
:104080000A3131807F1E3900C9B20029E9D188E0A8
:104090001120009000232200310028000BF090FB3B
:1040A00028187EE06846C188200009F027FF092013
:1040B000009001AB9B1C2200310028000BF080FB1C
:1040C00028186EE00421200009F018FF0620009057
:1040D00000232200310028000BF072FB281860E05A
:1040E0000421200009F00AFF06200090002322008E
:1040F000310028000BF064FB281852E038780028C3
:1041000026D102206946087102200090002301AAEE
:10411000310028000BF054FB2D180421200009F079
:10412000EDFE0620009000232200310028000BF055
:1041300047FB2D180421201D09F0E0FE0620009009
:104140000023221D310028000BF03AFB281824E040
:10415000387801280DD10421200009F0CFFE062077
:10416000009000232200310028000BF029FB2818C2
:1041700013E0387802280DD10421201D09F0BEFE7D
:10418000062000900023221D310028000BF018FBB0
:10419000281802E000206946487102E000206946C4
:1041A00048716846407905B0F0BD0000ACF80010D9
:1041B00015F90010F1B5C4B014001F0044A81F2168
:1041C00042780A40D2B2022A11D1012301AA521C1C
:1041D0002F2104200BF014FE16200090002301AACA
:1041E000521C390020000BF0EBFA201845E0407813
:1041F0000140C9B2032940D1FF231B1D02AA30216F
:1042000004200BF0FDFD01200090002302AA3900DC
:1042100020000BF0D5FA2618022069460871002507
:1042200025E002200090002301AA390030000BF0A5
:10423000C7FA36185020009000232800C0B204218D
:1042400048432018421C390030000BF0B9FA3618E8
:104250001220009000232800C0B2042148432018F7
:10426000C21C390030000BF0ABFA36186D1C02ACE2
:1042700028002178C0B28842D3D3012045B0F0BDD8
:10428000F1B586B006A800252C006E46F480012406
:104290006E467471069C2600360C3400E4B2132C72
:1042A00006D04478E406E40E022C01D0002051E34D
:1042B0000C0003920293F6B2012E09D0052E00D114
:1042C00085E0072E00D117E1132E00D14DE13DE32B
:1042D0000178002940D10120694608710120009031
:1042E000002301AA029903980BF06AFA03990D18AA
:1042F00003206946087102200090002301AA029958
:1043000028000BF05DFA2D1805206946C8800A20A8
:10431000009001AB9B1CDC4A029928000BF050FA7C
:104320002D18DA48C07B20700422D949601C09F09E
:10433000ACFD5F20009000232200029928000BF0C2
:104340003FFA2C18162000900023D24A0299200030
:104350000BF036FA201839E00078012834D1032018
:104360006946087102200090002301AA029903986F
:104370000BF026FA03990D1805206946C8800A201B
:10438000009001AB9B1CC04A029928000BF018FA60
:104390002D18BE48C07B20700422BD49601C09F066
:1043A00074FD5F20009000232200029928000BF08A
:1043B00007FA2C18162000900023B64A0299200014
:1043C0000BF0FEF9201801E068464571C0E2017863
:1043D00000294BD101263000694608710120009068
:1043E000002301AA029903980BF0EAF903990F1828
:1043F00004206946087102200090002301AA029956
:1044000038000BF0DDF93F1805206946C8800A2006
:10441000009001AB9B1CD74A029938000BF0D0F9F1
:104420003F18D548808980B20009310001402170D1
:104430001620009000232200029938000BF0C0F9EA
:104440003F182670162000900023220002993800A1
:104450000BF0B6F93E1825701620009000232200BC
:10446000029930000BF0ACF9301844E000780128D4
:104470003FD104206946087102200090002301AA60
:10448000029903980BF09CF903990E1805206946D0
:10449000C8800A20009001AB9B1CB64A02993000EC
:1044A0000BF08EF937180126B348808980B20009D5
:1044B0003100014021701620009000232200029953
:1044C00038000BF07DF93F1826701620009000236D
:1044D0002200029938000BF073F93E18257016205F
:1044E000009000232200029930000BF069F9301887
:1044F00001E0684645712BE2017800291DD10120B9
:104500006946087101200090002301AA02990398CE
:104510000BF056F903990D189748008980B280096D
:104520008007800F2070162000900023220002993F
:1045300028000BF045F9281816E00078012811D161
:104540008D48008980B280098007800F2070162076
:10455000009000232200029903980BF031F903998F
:10456000081801E068464571F2E11F2142780A40CF
:10457000D2B2052A00D062E1039802210170401CEA
:104580000490441C280004990870280069460870AB
:104590002F0027E00599481C0590200009F0BDFC7C
:1045A000641C761C3000AD493A00D2B20C235A4349
:1045B0008918097A80B289B28842EBD3A7483900BA
:1045C000C9B20C225143415C01290AD169460978DC
:1045D0003A00D2B20C235A43801840780818694632
:1045E00008707F1C3800C0B2522855D29B48390051
:1045F000C9B20C225143405C2070641C97483900BA
:10460000C9B20C22514340184078002808D0934882
:104610003900C9B20C225143401840782070641C04
:104620008E483900C9B20C2251434018007A002844
:10463000C4D08A483900C9B20C225143405C0428D6
:1046400018D0864E3800C0B20C2148433018027A88
:1046500092B23800C0B20C214843301841682000A3
:1046600009F034FC3800C0B20C2148433018007AFD
:104670002418A3E779483900C9B20C2251434018E5
:10468000406805902E008DE7CC9B0300BCFB00101A
:10469000389C03005F9C0300522069460978401A49
:1046A00004990870AC48007801285AD1280069465E
:1046B00008702F0049E0A94E3800C0B20C214843D1
:1046C000305C2070641C3800C0B20C2148433018A4
:1046D0004078002807D03800C0B20C214843301879
:1046E00040782070641C3800C0B20C214843301858
:1046F000007A002816D03800C0B20C214843301888
:10470000027A92B23800C0B20C2148433018416896
:10471000200009F0DBFB3800C0B20C214843301800
:10472000007A24183800C0B20C214843305C0128BC
:104730000AD1684600783900C9B20C225143711879
:1047400049784018694608707F1C3800C0B21A28A2
:10475000B1D3049800781A3069460978401A049950
:1047600008707F48007801285ED1280069460870EB
:104770002F004DE0D49B0300C4F60010794E3800A2
:10478000C0B20C214843305C2070641C3800C0B2B9
:104790000C21484330184078002807D03800C0B2B8
:1047A0000C214843301840782070641C3800C0B297
:1047B0000C2148433018007A002816D03800C0B2C7
:1047C0000C2148433018027A92B23800C0B20C2152
:1047D000484330184168200009F078FB3800C0B227
:1047E0000C2148433018007A24183800C0B20C213C
:1047F0004843305C01280AD1684600783900C9B2C4
:104800000C225143711849784018694608707F1C82
:104810003800C0B20928B1D304980078093069463D
:104820000978401A049908700C982100039A891A93
:10483000029A1180057001206946487185E0407830
:104840000140C9B2062900D07DE047484749415C94
:104850005A2905D129006A46D18010E04467030037
:10486000CA4941180A88FF23E2339A4202DBF02248
:1048700052000A800988022251436A46D1800921E8
:10488000039A117003994A1C01210B00029C23809A
:104890006B46DB88802B09DA6B46DB881370521C71
:1048A000029B1B885B1C029C238022E06B46DB88FA
:1048B000FF2B0CDC81231370521C6B46DB881370BA
:1048C000521C029B1B889B1C029C238011E08223AC
:1048D0001370521C6B46DB889BB21B0A1370521C70
:1048E0006B46DB881370521C029B1B88DB1C029CEE
:1048F00023806B46DB88002B22D014E02B009BB278
:1049000002245C430319A24C1B5B1370521C2B0046
:104910009BB202245C4303199D4C1B5B9BB21B0A98
:104920001370521C6D1C2B00984C045B9BB2A3426D
:10493000E4D3029800886A46D2888018029A1080D0
:104940006846417101E06846457101E0684645717D
:104950006846407907B0F0BD28F60010707C03006F
:104960007CF60010288E0300B8010010083000000B
:10497000F1B58EB00EA80E990C00240C00216D46E6
:1049800029710021A4B283498C4201D00020FBE0B0
:104990001F211400029342780A40D2B2022A72D137
:1049A0007D486821415C02292DD1252303AA5E217F
:1049B0000C200BF025FA794E3920305C6946097BD2
:1049C00040186946087101200090002301AA02994D
:1049D00020000AF0F5FE24183920355C2800C0B20A
:1049E000002823D05120009000232800C0B20421C9
:1049F0004843301802003632029920000AF0E0FEE7
:104A000024186D1EEAE76821415C002925D1252381
:104A100003AA83210C200BF0F3F90120009000235E
:104A200003AA029920000AF0CBFE241803AE3578C1
:104A30002800C0B2002800D1A5E05120009000233A
:104A40002800C0B2042148433218D21E0299200027
:104A50000AF0B6FE24186D1EEAE76821405C0428BF
:104A60000FD1252303AAA8210C200BF0C9F901209E
:104A70000090002303AA029920000AF0A1FE241846
:104A8000D4E7002080E040780140C9B2032978D102
:104A9000002522E008272800C0B239000BF017F9E2
:104AA00006002800C0B239000BF011F93B48012282
:104AB0003300DBB2C3189B780B411340002B06D1A7
:104AC000F6B28019407A08410240002A04D06846B4
:104AD0000079401C694608716D1C2800C0B2092885
:104AE000D8DB01200090002301AA029920000AF0DF
:104AF00067FE2518002420E0491C0A00D2B2092ACA
:104B00001ADA274A0B00DBB204267343D3189B78CA
:104B10000600F6B2B342EFD1C9B204204143505A65
:104B20006946C88050200090002301AA921C029977
:104B300028000AF045FE2D18641C2000C0B2092888
:104B400021DA08272000C0B239000BF0C0F80600B7
:104B50002000C0B239000BF0BAF81048012233002F
:104B6000DBB2C3189B780B411340002B06D1F6B281
:104B70008019407A08410240002ADDD0200000213F
:104B8000BBE7002000E001200FB0F0BD0C300000BA
:104B90001030000020330000ACF800103CF800108A
:104BA0005C970300F1B584B00E0004AF00240498B4
:104BB000000C69460880F878C0B20009C0B200282D
:104BC00007D0022811D004281BD00F2800D143E1C0
:104BD00058E131000498FBF773FA0400200080B21A
:104BE000002801D1002050E14DE131000498FBF78D
:104BF00005FB0400200080B2002801D1002044E120
:104C000041E1002500E06D1C2800C0B21D2827D21C
:104C10009F482900C9B20C225143405A694609886D
:104C20008842F0D19A4C2800C0B20C214843201889
:104C3000C38832002800C0B20C2148432018816884
:104C40008C462900C9B20C204143601800796146A6
:104C50000BF0D6F82800C0B20C2148432018C488B5
:104C6000EDB21D2D01D100200FE168460088894971
:104C700088421AD13878002800D1ECE03878401EFC
:104C800006214843062280B2311801A809F0FDF838
:104C9000052201A8411C300009F0F7F8012201A902
:104CA000701D09F0F2F80624D5E0684600887A49BC
:104CB000884204D068460088784988423ED13878D6
:104CC00000281CD00324072080B2210089B23A7842
:104CD000521E4A438018B9780907090F091F2A2272
:104CE000514341180323320089B2863105200BF06D
:104CF00087F8210089B2300009F000F9ABE0002507
:104D00002C00B8780107090F2A204143A13923005C
:104D10009BB2320089B2863105200BF071F8280071
:104D2000C0B20E2800DB96E003212800C0B20322A7
:104D30005043301809F0E2F86D1CF0E7684600882F
:104D40007649884204D0684600888349884260D109
:104D50003878002823D03878401E2A214843B97873
:104D60000907090F891FA8225200514341182A231D
:104D7000320089B2E33105200BF042F8002408E04C
:104D800003212000C0B203225043301809F0B6F8C6
:104D9000641C2000C0B20E28F2DB2A245BE0002451
:104DA00000206946087017E00321684600782A222F
:104DB000504330182A00D2B203235A43801809F016
:104DC0009DF86D1C2800C0B20E28EDDB2A34684621
:104DD0000078401C694608706846007808283ADA6E
:104DE000684600782A214843B9780907090F891FC6
:104DF000A8225200514341182A23684600782A22EB
:104E00005043321889B2E33105200AF0F9FF00253A
:104E1000D8E768460088514988421CD13878002874
:104E200010D1002408E002212000C0B20222504329
:104E3000301809F063F8641C2000C0B20328F2DBCC
:104E4000062408E002213878022250433018801EE0
:104E500009F054F8022416E004984149884210D120
:104E600005224049300009F010F801203E498989A7
:104E700089B2090902000A407271B0710020F07114
:104E8000082400E00024200080B205B0F0BD00003E
:104E9000B8790300114000001440000015400000E4
:104EA000F3B585B01E0000252C003049014000916B
:104EB000D2B2092A18DA2F0000E07F1C3800C0B2F5
:104EC000052811DA2A483900C9B20722514340188F
:104ED000C01C0DF021F800998842EED12548FFB2A0
:104EE000C05D0699087001242000C0B2012810D1CD
:104EF000069800781C280CD107223100684608F07B
:104F0000C4FF0721300008F0B5FC002801D0069846
:104F100005702000C0B207B0F0BD000016400000D0
:104F200070B50C00114D0540134E701D0CF0F4FFD0
:104F3000A84204D106202070601C01200BE0300044
:104F400012300CF0E9FFA84204D11C202070601C34
:104F5000012000E0002070BD174000001641000055
:104F6000010205F2D49B0300C4F60010FF0FFFFFFF
:104F70000C970300E49B0300E0970300F8B5AAB088
:104F80000026FF206946087069460872802080006C
:104F900011F022F801900198002800D135E180201D
:104FA000C00011F019F803900398002803D101986C
:104FB00011F05AF829E1FF230833019A0021192042
:104FC0000AF01EFF0198007869464872002410E03C
:104FD000112308A82100C9B21122514342188D485B
:104FE0002100C9B20825694341581B200AF008FF77
:104FF000641C2000C0B20828EADB00206946487023
:1050000016E03000C0B2AA280DD168460078694683
:10501000097A884207D10D2204A901986B465B8961
:10502000C01808F032FF68464078401C6946487056
:10503000684640786946497A884200D3A8E06846C5
:1050400040780D214843C01C694648810D220198D3
:1050500069464989411804A808F017FF04A8801C74
:10506000694609784278D2B2520991420BD0407811
:10507000C0B240096946087004A8C57A017B0906D8
:10508000090C0D430FE04078C0B240096946087032
:1050900008A869460978112251434018457881785B
:1050A0000906090C0D4304ACA01C0CF035FF0200EE
:1050B000039957481040FFF775FDA17A0200D2B25C
:1050C000914201D0AA26A072E5722D0A2573E07ADA
:1050D000217B0906090C0843A17A08186946488013
:1050E00008AC684600781121484320186946498871
:1050F0004170090A817068460078112148432018E0
:10510000457881780906090C0D436846007811211D
:10511000484320180D300CF0FFFE69460978112233
:1051200051436118C91DADB2684311F027F86846B4
:1051300005782800C0B2082800DB62E72800C0B26A
:1051400000281AD02800C0B21121484320180A387C
:105150000CF0E2FE07002800C0B2112148432018DD
:105160000E380CF0D9FE2900C9B211225143611842
:10517000C91C381811F002F808E02800C0B211214B
:1051800048432018C11C002010F0F8FF6D1CD0E728
:10519000F6B2AA2E33D104A8C17A027B1206120CF1
:1051A0001143807A081869464880022200A9891CA8
:1051B0000198401C08F069FEFF230833019A002182
:1051C00019200AF03DFE002415E0112208A8210054
:1051D000C9B2112359434118019808F056FE112312
:1051E000019A0C482100C9B20825694341581B2087
:1051F0000AF026FE641C2000C0B20828E5DB0198F6
:1052000010F032FF039810F02FFF2BB0F0BD00001C
:10521000FF1FFFFF04950300F8B588B00020694622
:1052200008702EE0EDB2AA2D20D104A8C17A027B2D
:105230001206120C1143807A08186946488002222F
:1052400000A9891C0198401C08F01FFE54486946BB
:1052500009780822514341184B68019A6946097838
:1052600008246143415819200AF0EAFD019810F022
:10527000FBFE039810F0F8FE68460078401C694673
:1052800008706846007800283AD1684600780028FF
:1052900002D1FFF773FEEFE78025AD00280010F084
:1052A0009BFE0190019800282AD08024E400200071
:1052B00010F092FE03900398002823D02A000021CA
:1052C000019808F0F6FD22000021039808F0F1FD96
:1052D00000263500324869460978082251434018B3
:1052E0004368019A2E486946097808246143415869
:1052F00019200AF085FD01980078694648703DE064
:1053000009B0F0BD019810F0AFFEF9E704A8C17A2A
:10531000027B1206120C1143807A0F183000C0B2C3
:105320000D214843C01C694608810D220198694639
:105330000989411804A808F0A8FD04ACA01C0CF0D1
:10534000EBFD0200039917481040FFF72BFCA17AF0
:105350000200D2B2914201D0AA25A0722800C0B2A8
:10536000AA280AD1E7723F0A27730D2204A90198DF
:105370006B461B89C01808F088FD761C3000694612
:105380004978C0B2884200D34CE73000C0B2002850
:10539000BCD10548477881780906090C0F43BDE761
:1053A000EC9B0300FF1FFFFFE0970300F1B582B005
:1053B0000C0002980100090C02983A4B034002933A
:1053C00002A8C378DBB21B09DBB2002B08D0022B8A
:1053D00049D0042B00D14BE20F2B00D1EDE238E392
:1053E000002200E0521C1300DBB21C2B0FD22E4B0C
:1053F0001500EDB2082675435D5B0E00B6B2B542EE
:10540000F0D11100C9B20825694359188978D2B280
:105410001C2A01D100201DE30178002905D10122B9
:1054200011002170611C0A704C1C1F2142780B0076
:105430001340DBB2042B05D042780B001340DBB2E3
:10544000082B03D115202070601C0BE04078014030
:10545000C9B2062903D111202070601C02E0062089
:105460002070601CF5E2002300E05B1C1D00EDB223
:105470001F2D11D20D4D1E00F6B20C277E43AE5BE0
:105480000F00BFB2BE42F0D11900C9B20C22514385
:1054900069188A7869464B70DBB21F2B08D100204F
:1054A000D8E200BFFF0FFFFF9081030044780300A4
:1054B00000210B006D462B701300DBB2002B07D0D0
:1054C0001300DBB2022B03D01300DBB2032B0DD190
:1054D0000078002809D101202070601C03226B464F
:1054E0001A706A4612780270441CB9E11300DBB2EC
:1054F000012B07D01300DBB20B2B03D01300DBB260
:105500000C2B19D10278002AEFD11F224378150005
:105510001D40EDB2022D04D040780240D2B2052ADF
:10552000E3D101202070601C03226B461A706A468A
:1055300012780270441CD8E71300DBB2042B17D09A
:105540001300DBB2052B13D01300DBB2062B0FD0F8
:105550001300DBB2072B0BD01300DBB2082B07D0F4
:105560001300DBB2092B03D01300DBB20A2B0DD1E1
:1055700000780028B9D101202070601C04226B46FD
:105580001A706A4612780270441CAEE71300DBB250
:105590000D2B0FD01300DBB20E2B0BD01300DBB2A0
:1055A0000F2B07D01300DBB2102B03D01300DBB29C
:1055B000112B44D11F22437815001D40EDB2022D5E
:1055C0000BD0437815001D40EDB2032D05D0437874
:1055D00015001D40EDB2042D0DD10078002884D1B6
:1055E00001202070601C29226B461A706A461278CE
:1055F0000270441C79E7437815001D40EDB2052D7B
:1056000003D111202070641C6FE743781A40D2B296
:10561000072A00D069E7007800280CD10222100088
:105620002070601C0270401C062213000370401C96
:105630000270441C59E706202070641C55E71300D3
:10564000DBB2122B67D10178002931D10220207002
:10565000611C032002006B461A706A4612780A70B9
:10566000491C1C220A704A1C01210B001370521C99
:1056700003006C4623706B461B781370521C122378
:105680001370521C1370521C1370521C1170511C59
:105690006A461070684600780870481C05210A00A8
:1056A0000270401C0A000270401C0170401C31E076
:1056B0000178012903D11C202070601C2AE00178A8
:1056C000022911D101202070601C03216A4611704B
:1056D000694609780170401C12210170401C01705C
:1056E000401C0170401C15E00078032812D10120F5
:1056F0002070601C03216A461170694609780170A8
:10570000401C05210A000270401C0A000270401C67
:105710000170401C9DE11300DBB2142B14D1027800
:10572000002A00D0E1E64078C006C00E042800D070
:10573000DBE601202070601C08226B461A706A4666
:1057400012780270441CD0E61300DBB2152B0ED188
:105750000078002800D0C8E601202070601C0422D8
:105760006B461A706A4612780270441CBDE613003C
:10577000DBB2192B14D14278D206D20E022A00D005
:10578000B3E60078002800D0AFE601202070601C4E
:1057900007226B461A706A4612780270441CA4E60F
:1057A0001300DBB21A2B1AD11F22437815001D40BB
:1057B000EDB2022D05D0437815001D40EDB2042D49
:1057C00003D104202070641C8FE640780240D2B2DE
:1057D000052A00D089E616202070641C85E6130097
:1057E000DBB22A2B07D01300DBB22B2B03D0D2B2B3
:1057F0002C2A00D079E60078002809D10222100076
:105800002070601C6B461A706A4612780270441C45
:1058100014E002202070601C05220270421C062049
:1058200003001370521C12231370521C1370521C6D
:1058300003001370521C1070541C491C0800C0B2A5
:105840006A461278521C9042E3DB02E1B3486A4692
:1058500052780C235A438018C0782070641C491C6D
:105860000800C0B26A461278521C9042EEDBF0E0AB
:10587000002200E0521C1300DBB21D2B09D2A84B02
:105880001500EDB20C2675435B5B0D00ADB2AB426B
:10589000F0D11300DBB21D2B01D10020DAE00B00A8
:1058A0009BB2A04DAB4204D00B009F4D9BB2AB42CC
:1058B00016D10078002805D101202070601C0E212F
:1058C0000170441C02202070601C03210170401CE8
:1058D00011210170401C0170401C0170401C6BE0E4
:1058E0000B009BB2914DAB4204D00B00904D9BB28C
:1058F000AB422AD1007800280CD101236A4601214D
:1059000005200AF07DFA01202070601C69460978A4
:105910000170441C01236A46022105200AF070FA36
:1059200001202070601C694609780170401C02212A
:105930000170401C03210170401C11210170401CAA
:105940000170401C0170401C36E07A4B89B29942CC
:1059500014D10078002805D101202070601C03219B
:105960000170441C022108002070601C0170401C62
:1059700011210170401C0170401C1DE002986E490D
:10598000884206D111202070601C01210170401C4A
:1059900012E002986949884206D116202070601CE6
:1059A00001210170401C07E05D48D2B20C214A433E
:1059B000801880782070601C4BE002986049884213
:1059C00006D109202070601C10210170401C3FE0AE
:1059D00002985C49884210D102202070601C04218A
:1059E0000170401C0A210170401C16210170401CEE
:1059F0000170401C0170401C2AE002985249884204
:105A000006D109202070601C08210170401C1FE095
:105A10000298C749884206D10A202070601C2021C4
:105A20000170401C14E00298C249884206D10A2045
:105A30002070601C10210170401C09E00298CD49C3
:105A4000884205D10A202070601C20210170401C72
:105A5000FFE70120FEBDF1B581B00198000C6B4657
:105A600058800198C44B0340019301ABD878C0B271
:105A70000009C0B200284FD10020040000E0641CDF
:105A80002500EDB21C2D11D2CA4D2600F6B2082712
:105A90007E43AE5B6F467F88BE42F0D12600F6B2F1
:105AA00008277E43AD19AD786E463570E4B21C2CE4
:105AB00001D1002031E01C78002C06D101240C70AB
:105AC000491C1400641C0C70491C0CE006240C706A
:105AD000491C07E05C78E406E40E042CF6D115249A
